{
  "contractName": "insurance",
  "abi": [
    {
      "constant": true,
      "inputs": [],
      "name": "company_account",
      "outputs": [
        {
          "name": "",
          "type": "address"
        }
      ],
      "payable": false,
      "stateMutability": "view",
      "type": "function"
    },
    {
      "constant": true,
      "inputs": [
        {
          "name": "",
          "type": "address"
        },
        {
          "name": "",
          "type": "uint256"
        }
      ],
      "name": "po",
      "outputs": [
        {
          "name": "duration",
          "type": "uint256"
        },
        {
          "name": "premium",
          "type": "uint256"
        },
        {
          "name": "sdate",
          "type": "uint256"
        },
        {
          "name": "amount",
          "type": "uint256"
        },
        {
          "name": "count",
          "type": "uint256"
        }
      ],
      "payable": false,
      "stateMutability": "view",
      "type": "function"
    },
    {
      "constant": true,
      "inputs": [
        {
          "name": "",
          "type": "uint256"
        }
      ],
      "name": "claims",
      "outputs": [
        {
          "name": "ramount",
          "type": "uint256"
        },
        {
          "name": "hid",
          "type": "bytes32"
        },
        {
          "name": "person",
          "type": "address"
        },
        {
          "name": "pid",
          "type": "uint256"
        }
      ],
      "payable": false,
      "stateMutability": "view",
      "type": "function"
    },
    {
      "constant": true,
      "inputs": [],
      "name": "fraction_to_be_invested",
      "outputs": [
        {
          "name": "",
          "type": "uint256"
        }
      ],
      "payable": false,
      "stateMutability": "view",
      "type": "function"
    },
    {
      "constant": true,
      "inputs": [
        {
          "name": "",
          "type": "address"
        }
      ],
      "name": "p",
      "outputs": [
        {
          "name": "salary",
          "type": "uint256"
        },
        {
          "name": "adhar_no",
          "type": "string"
        },
        {
          "name": "no_policies",
          "type": "uint256"
        }
      ],
      "payable": false,
      "stateMutability": "view",
      "type": "function"
    },
    {
      "constant": true,
      "inputs": [],
      "name": "claimid",
      "outputs": [
        {
          "name": "",
          "type": "uint256"
        }
      ],
      "payable": false,
      "stateMutability": "view",
      "type": "function"
    },
    {
      "constant": true,
      "inputs": [
        {
          "name": "",
          "type": "bytes32"
        }
      ],
      "name": "hospitals",
      "outputs": [
        {
          "name": "",
          "type": "address"
        }
      ],
      "payable": false,
      "stateMutability": "view",
      "type": "function"
    },
    {
      "inputs": [
        {
          "name": "_fraction",
          "type": "uint256"
        }
      ],
      "payable": false,
      "stateMutability": "nonpayable",
      "type": "constructor"
    },
    {
      "anonymous": false,
      "inputs": [
        {
          "indexed": false,
          "name": "id",
          "type": "uint256"
        }
      ],
      "name": "policyadded",
      "type": "event"
    },
    {
      "anonymous": false,
      "inputs": [
        {
          "indexed": false,
          "name": "id",
          "type": "uint256"
        }
      ],
      "name": "claimsubmitted",
      "type": "event"
    },
    {
      "anonymous": false,
      "inputs": [
        {
          "indexed": false,
          "name": "bal",
          "type": "uint256"
        }
      ],
      "name": "balance",
      "type": "event"
    },
    {
      "constant": false,
      "inputs": [
        {
          "name": "_salary",
          "type": "uint256"
        },
        {
          "name": "_adhar_no",
          "type": "string"
        },
        {
          "name": "_premium",
          "type": "uint256"
        },
        {
          "name": "_amount",
          "type": "uint256"
        },
        {
          "name": "_duration",
          "type": "uint256"
        }
      ],
      "name": "addapolicy",
      "outputs": [
        {
          "name": "",
          "type": "uint256"
        }
      ],
      "payable": false,
      "stateMutability": "nonpayable",
      "type": "function"
    },
    {
      "constant": false,
      "inputs": [
        {
          "name": "_amount",
          "type": "uint256"
        },
        {
          "name": "_hospital",
          "type": "bytes32"
        },
        {
          "name": "_identity",
          "type": "uint256"
        }
      ],
      "name": "claimpolicy",
      "outputs": [
        {
          "name": "",
          "type": "uint256"
        }
      ],
      "payable": false,
      "stateMutability": "nonpayable",
      "type": "function"
    },
    {
      "constant": false,
      "inputs": [
        {
          "name": "_identity",
          "type": "uint256"
        }
      ],
      "name": "paypremium",
      "outputs": [],
      "payable": true,
      "stateMutability": "payable",
      "type": "function"
    },
    {
      "constant": false,
      "inputs": [
        {
          "name": "_hid",
          "type": "bytes32"
        },
        {
          "name": "_amt",
          "type": "uint256"
        },
        {
          "name": "_cid",
          "type": "uint256"
        }
      ],
      "name": "confirmclaim",
      "outputs": [],
      "payable": false,
      "stateMutability": "nonpayable",
      "type": "function"
    },
    {
      "constant": false,
      "inputs": [
        {
          "name": "_address",
          "type": "address"
        },
        {
          "name": "_hid",
          "type": "bytes32"
        }
      ],
      "name": "addhospital",
      "outputs": [],
      "payable": false,
      "stateMutability": "nonpayable",
      "type": "function"
    },
    {
      "constant": false,
      "inputs": [],
      "name": "addcapital",
      "outputs": [],
      "payable": true,
      "stateMutability": "payable",
      "type": "function"
    },
    {
      "constant": false,
      "inputs": [],
      "name": "getbalance",
      "outputs": [
        {
          "name": "",
          "type": "uint256"
        }
      ],
      "payable": false,
      "stateMutability": "nonpayable",
      "type": "function"
    }
  ],
  "bytecode": "0x608060405234801561001057600080fd5b506040516020806115b58339810180604052602081101561003057600080fd5b81019080805190602001909291905050508060008190555033600160006101000a81548173ffffffffffffffffffffffffffffffffffffffff021916908373ffffffffffffffffffffffffffffffffffffffff160217905550600060028190555050611514806100a16000396000f3fe6080604052600436106100d0576000357c0100000000000000000000000000000000000000000000000000000000900463ffffffff1680630dc56a44146100d5578063489215361461012c5780634d9b3d5d1461018f57806353917607146101ba578063681f5608146102095780637787b8e8146102945780637e7472f01461029e578063a888c2cd146102cc578063bb3e438c1461035c578063c4531427146103b7578063ccc41605146103e2578063d4fd9542146104e6578063eec88b43146105be578063ffe6f08a146105e9575b600080fd5b3480156100e157600080fd5b506100ea610664565b604051808273ffffffffffffffffffffffffffffffffffffffff1673ffffffffffffffffffffffffffffffffffffffff16815260200191505060405180910390f35b34801561013857600080fd5b506101796004803603606081101561014f57600080fd5b8101908080359060200190929190803590602001909291908035906020019092919050505061068a565b6040518082815260200191505060405180910390f35b34801561019b57600080fd5b506101a46108f9565b6040518082815260200191505060405180910390f35b3480156101c657600080fd5b50610207600480360360608110156101dd57600080fd5b810190808035906020019092919080359060200190929190803590602001909291905050506109c2565b005b34801561021557600080fd5b506102626004803603604081101561022c57600080fd5b81019080803573ffffffffffffffffffffffffffffffffffffffff16906020019092919080359060200190929190505050610c6d565b604051808681526020018581526020018481526020018381526020018281526020019550505050505060405180910390f35b61029c610cb0565b005b6102ca600480360360208110156102b457600080fd5b8101908080359060200190929190505050610d0e565b005b3480156102d857600080fd5b50610305600480360360208110156102ef57600080fd5b8101908080359060200190929190505050610e9b565b604051808581526020018481526020018373ffffffffffffffffffffffffffffffffffffffff1673ffffffffffffffffffffffffffffffffffffffff16815260200182815260200194505050505060405180910390f35b34801561036857600080fd5b506103b56004803603604081101561037f57600080fd5b81019080803573ffffffffffffffffffffffffffffffffffffffff16906020019092919080359060200190929190505050610eeb565b005b3480156103c357600080fd5b506103cc610f9d565b6040518082815260200191505060405180910390f35b3480156103ee57600080fd5b506104d0600480360360a081101561040557600080fd5b81019080803590602001909291908035906020019064010000000081111561042c57600080fd5b82018360208201111561043e57600080fd5b8035906020019184600183028401116401000000008311171561046057600080fd5b91908080601f016020809104026020016040519081016040528093929190818152602001838380828437600081840152601f19601f820116905080830192505050505050509192919290803590602001909291908035906020019092919080359060200190929190505050610fa3565b6040518082815260200191505060405180910390f35b3480156104f257600080fd5b506105356004803603602081101561050957600080fd5b81019080803573ffffffffffffffffffffffffffffffffffffffff169060200190929190505050611332565b6040518084815260200180602001838152602001828103825284818151815260200191508051906020019080838360005b83811015610581578082015181840152602081019050610566565b50505050905090810190601f1680156105ae5780820380516001836020036101000a031916815260200191505b5094505050505060405180910390f35b3480156105ca57600080fd5b506105d36113f4565b6040518082815260200191505060405180910390f35b3480156105f557600080fd5b506106226004803603602081101561060c57600080fd5b81019080803590602001909291905050506113fa565b604051808273ffffffffffffffffffffffffffffffffffffffff1673ffffffffffffffffffffffffffffffffffffffff16815260200191505060405180910390f35b600160009054906101000a900473ffffffffffffffffffffffffffffffffffffffff1681565b600083826000600460003373ffffffffffffffffffffffffffffffffffffffff1673ffffffffffffffffffffffffffffffffffffffff168152602001908152602001600020600201541115156106df57600080fd5b81600560003373ffffffffffffffffffffffffffffffffffffffff1673ffffffffffffffffffffffffffffffffffffffff16815260200190815260200160002060008381526020019081526020016000206003015411151561074057600080fd5b600560003373ffffffffffffffffffffffffffffffffffffffff1673ffffffffffffffffffffffffffffffffffffffff168152602001908152602001600020600082815260200190815260200160002060000154600560003373ffffffffffffffffffffffffffffffffffffffff1673ffffffffffffffffffffffffffffffffffffffff16815260200190815260200160002060008381526020019081526020016000206002015442031015156107f657600080fd5b600061080061142d565b90506080604051908101604052808881526020018781526020013373ffffffffffffffffffffffffffffffffffffffff1681526020018681525060066000838152602001908152602001600020600082015181600001556020820151816001015560408201518160020160006101000a81548173ffffffffffffffffffffffffffffffffffffffff021916908373ffffffffffffffffffffffffffffffffffffffff160217905550606082015181600301559050507f4e31685a342c7a7787862a9682f8339326829a3c46f3faf021a0323ac9f20f04816040518082815260200191505060405180910390a18093505050509392505050565b6000600160009054906101000a900473ffffffffffffffffffffffffffffffffffffffff1673ffffffffffffffffffffffffffffffffffffffff163373ffffffffffffffffffffffffffffffffffffffff1614151561095757600080fd5b7f47bb89f0fc234008e53c79bc3e3dab90e27502d1380a4b3cc35038d57fa03d2a3073ffffffffffffffffffffffffffffffffffffffff16316040518082815260200191505060405180910390a13073ffffffffffffffffffffffffffffffffffffffff1631905090565b8281833373ffffffffffffffffffffffffffffffffffffffff166003600085815260200190815260200160002060009054906101000a900473ffffffffffffffffffffffffffffffffffffffff1673ffffffffffffffffffffffffffffffffffffffff16141515610a3257600080fd5b600660008381526020019081526020016000206001015483141515610a5657600080fd5b600660008381526020019081526020016000206000015481141515610a7a57600080fd5b6006600085815260200190815260200160002060020160009054906101000a900473ffffffffffffffffffffffffffffffffffffffff1673ffffffffffffffffffffffffffffffffffffffff166108fc670de0b6b3a76400006006600088815260200190815260200160002060000154029081150290604051600060405180830381858888f19350505050158015610b16573d6000803e3d6000fd5b50670de0b6b3a7640000600660008681526020019081526020016000206000015402600560003373ffffffffffffffffffffffffffffffffffffffff1673ffffffffffffffffffffffffffffffffffffffff1681526020019081526020016000206000600660008881526020019081526020016000206003015481526020019081526020016000206003015403600560003373ffffffffffffffffffffffffffffffffffffffff1673ffffffffffffffffffffffffffffffffffffffff168152602001908152602001600020600060066000888152602001908152602001600020600301548152602001908152602001600020600301819055506006600085815260200190815260200160002060008082016000905560018201600090556002820160006101000a81549073ffffffffffffffffffffffffffffffffffffffff021916905560038201600090555050505050505050565b6005602052816000526040600020602052806000526040600020600091509150508060000154908060010154908060020154908060030154908060040154905085565b600160009054906101000a900473ffffffffffffffffffffffffffffffffffffffff1673ffffffffffffffffffffffffffffffffffffffff163373ffffffffffffffffffffffffffffffffffffffff16141515610d0c57600080fd5b565b80600560003373ffffffffffffffffffffffffffffffffffffffff1673ffffffffffffffffffffffffffffffffffffffff16815260200190815260200160002060008281526020019081526020016000206001015434141515610d7057600080fd5b6001600560003373ffffffffffffffffffffffffffffffffffffffff1673ffffffffffffffffffffffffffffffffffffffff16815260200190815260200160002060008481526020019081526020016000206004015403600560003373ffffffffffffffffffffffffffffffffffffffff1673ffffffffffffffffffffffffffffffffffffffff168152602001908152602001600020600084815260200190815260200160002060040181905550600160009054906101000a900473ffffffffffffffffffffffffffffffffffffffff1673ffffffffffffffffffffffffffffffffffffffff166108fc60646000543402811515610e6a57fe5b049081150290604051600060405180830381858888f19350505050158015610e96573d6000803e3d6000fd5b505050565b60066020528060005260406000206000915090508060000154908060010154908060020160009054906101000a900473ffffffffffffffffffffffffffffffffffffffff16908060030154905084565b600160009054906101000a900473ffffffffffffffffffffffffffffffffffffffff1673ffffffffffffffffffffffffffffffffffffffff163373ffffffffffffffffffffffffffffffffffffffff16141515610f4757600080fd5b816003600083815260200190815260200160002060006101000a81548173ffffffffffffffffffffffffffffffffffffffff021916908373ffffffffffffffffffffffffffffffffffffffff1602179055505050565b60005481565b600080600460003373ffffffffffffffffffffffffffffffffffffffff1673ffffffffffffffffffffffffffffffffffffffff168152602001908152602001600020600201541415611084576060604051908101604052808781526020018681526020016001815250600460003373ffffffffffffffffffffffffffffffffffffffff1673ffffffffffffffffffffffffffffffffffffffff168152602001908152602001600020600082015181600001556020820151816001019080519060200190611071929190611443565b5060408201518160020155905050611159565b6060604051908101604052808781526020018681526020016001600460003373ffffffffffffffffffffffffffffffffffffffff1673ffffffffffffffffffffffffffffffffffffffff1681526020019081526020016000206002015401815250600460003373ffffffffffffffffffffffffffffffffffffffff1673ffffffffffffffffffffffffffffffffffffffff16815260200190815260200160002060008201518160000155602082015181600101908051906020019061114a929190611443565b50604082015181600201559050505b60a060405190810160405280603c80601861016487020202028152602001670de0b6b3a764000086028152602001428152602001670de0b6b3a764000085028152602001600c8402815250600560003373ffffffffffffffffffffffffffffffffffffffff1673ffffffffffffffffffffffffffffffffffffffff1681526020019081526020016000206000600460003373ffffffffffffffffffffffffffffffffffffffff1673ffffffffffffffffffffffffffffffffffffffff16815260200190815260200160002060020154815260200190815260200160002060008201518160000155602082015181600101556040820151816002015560608201518160030155608082015181600401559050507fcb6fffb17204683ce1574a931349a26016877f14eddc4d2e86bc1eeaa456fdc4600460003373ffffffffffffffffffffffffffffffffffffffff1673ffffffffffffffffffffffffffffffffffffffff168152602001908152602001600020600201546040518082815260200191505060405180910390a1600460003373ffffffffffffffffffffffffffffffffffffffff1673ffffffffffffffffffffffffffffffffffffffff16815260200190815260200160002060020154905095945050505050565b6004602052806000526040600020600091509050806000015490806001018054600181600116156101000203166002900480601f0160208091040260200160405190810160405280929190818152602001828054600181600116156101000203166002900480156113e45780601f106113b9576101008083540402835291602001916113e4565b820191906000526020600020905b8154815290600101906020018083116113c757829003601f168201915b5050505050908060020154905083565b60025481565b60036020528060005260406000206000915054906101000a900473ffffffffffffffffffffffffffffffffffffffff1681565b6000600160025401600281905550600254905090565b828054600181600116156101000203166002900490600052602060002090601f016020900481019282601f1061148457805160ff19168380011785556114b2565b828001600101855582156114b2579182015b828111156114b1578251825591602001919060010190611496565b5b5090506114bf91906114c3565b5090565b6114e591905b808211156114e15760008160009055506001016114c9565b5090565b9056fea165627a7a723058204dfd88f3f9a04e6330a3eab83909a99466b545201c5fb82c8eafc839b2a5354a0029",
  "source": "pragma solidity ^0.5.0;\r\n\r\ncontract insurance{\r\n    //struct to save info of customer and the policy\r\n   struct person{\r\n       uint salary;\r\n       string adhar_no;\r\n       uint no_policies;\r\n   }\r\n   struct policy{\r\n       uint duration;\r\n       uint premium;\r\n       uint sdate;\r\n       uint amount;\r\n       uint count;\r\n       //uint preduration;\r\n      // uint typep;\r\n   }\r\n   struct claim{\r\n       uint ramount;\r\n       bytes32 hid;\r\n       address payable person;\r\n       uint pid;\r\n   }\r\n\r\n   event policyadded(uint id);\r\n   event claimsubmitted(uint id);\r\n   event balance(uint bal);\r\n   uint public fraction_to_be_invested;\r\n   address payable public company_account;\r\n   uint public claimid;\r\n   mapping (bytes32=>address) public hospitals;\r\n   \r\n   //mappins to save the policy holders\r\n   mapping(address=>person) public p;\r\n   mapping(address=>mapping(uint=>policy)) public po;\r\n   mapping(uint=>claim) public claims;\r\n  \r\n  //modifiers for verification of transaction requests to the contract\r\n   modifier verifyclaim(uint _amt,uint _identity){\r\n       require(p[msg.sender].no_policies>0);\r\n       require(po[msg.sender][_identity].amount>_amt);\r\n       require(now-po[msg.sender][_identity].sdate<po[msg.sender][_identity].duration);\r\n       _;\r\n   }\r\n   \r\n   \r\n    modifier verifypremium(uint _identity){\r\n       require(msg.value == po[msg.sender][_identity].premium);\r\n     _;  \r\n   }\r\n    modifier verifyhospital(bytes32  _hid,uint _cid,uint _amt){\r\n        require(hospitals[_hid]==msg.sender);\r\n        require(_hid==claims[_cid].hid);\r\n        require(_amt==claims[_cid].ramount);\r\n     _;  \r\n   }\r\n   modifier isinsurer{\r\n       require(msg.sender==company_account);\r\n       _;\r\n   }\r\n  \r\n  \r\n    constructor(uint _fraction)public{\r\n          fraction_to_be_invested=_fraction;\r\n          company_account=msg.sender;\r\n          claimid=0;\r\n    }\r\n   //function to add policy into the contract\r\n   function addapolicy(uint _salary,string memory _adhar_no,uint _premium,uint _amount,uint _duration/*,uint _preduration,uint _type*/)public returns(uint) {\r\n       \r\n       if(p[msg.sender].no_policies==0){\r\n           p[msg.sender]=person(_salary,_adhar_no,1);\r\n       }\r\n       else{\r\n           p[msg.sender]=person(_salary,_adhar_no,p[msg.sender].no_policies+1);\r\n       }\r\n       \r\n       po[msg.sender][p[msg.sender].no_policies]=policy({duration:_duration*356*24*60*60,premium:_premium*1 ether,sdate:now,amount:_amount*1 ether,count:(_duration*12)/*_preduration,preduration:(_preduration*365)/12,typep:_type*/});\r\n       emit policyadded(p[msg.sender].no_policies);\r\n       return p[msg.sender].no_policies;\r\n   }\r\n   \r\n   \r\n   //function to claim the policy\r\n   function claimpolicy(uint _amount,bytes32  _hospital,uint _identity) public verifyclaim(_amount,_identity)returns(uint){\r\n       uint x=getclaimid();\r\n        claims[x]=claim(_amount,_hospital,msg.sender,_identity);\r\n        emit claimsubmitted(x);\r\n        return x;\r\n   }\r\n   \r\n   \r\n   //for premium\r\n   function paypremium(uint _identity) payable public verifypremium(_identity){\r\n            po[msg.sender][_identity].count=po[msg.sender][_identity].count-1;\r\n            company_account.transfer(msg.value*fraction_to_be_invested/100);\r\n   }\r\n   \r\n   \r\n   function confirmclaim(bytes32  _hid,uint _amt,uint _cid)public verifyhospital(_hid,_cid,_amt){\r\n        claims[_cid].person.transfer(claims[_cid].ramount*1 ether);\r\n        po[msg.sender][claims[_cid].pid].amount=po[msg.sender][claims[_cid].pid].amount-claims[_cid].ramount*1 ether;\r\n        delete claims[_cid];\r\n   }\r\n   \r\n   \r\n   function getclaimid()private returns(uint){\r\n       claimid=claimid+1;\r\n       return claimid;\r\n   }\r\n   \r\n    function addhospital(address _address,bytes32 _hid)public isinsurer{\r\n        hospitals[_hid]=_address;\r\n    }\r\n    \r\n   function addcapital()payable public isinsurer{}\r\n   function getbalance()public isinsurer returns(uint){\r\n      emit balance(address(this).balance);\r\n      return address(this).balance;\r\n   }\r\n}",
  "sourcePath": "C:/Users/SIDDHANT DESHMUKH/Desktop/insurance1/contracts/insurance.sol",
  "compiler": {
    "name": "solc",
    "version": "0.5.0+commit.1d4f565a.Emscripten.clang"
  },
  "schemaVersion": "3.0.9",
  "updatedAt": "2019-06-30T05:13:48.985Z",
  "devdoc": {
    "methods": {}
  },
  "userdoc": {
    "methods": {}
  }
}